{
  "contractName": "DeepThought",
  "abi": [
    {
      "constant": true,
      "inputs": [],
      "name": "payload",
      "outputs": [
        {
          "internalType": "string",
          "name": "",
          "type": "string"
        }
      ],
      "payable": false,
      "stateMutability": "view",
      "type": "function"
    },
    {
      "constant": false,
      "inputs": [
        {
          "internalType": "string",
          "name": "content",
          "type": "string"
        }
      ],
      "name": "setPayload",
      "outputs": [],
      "payable": false,
      "stateMutability": "nonpayable",
      "type": "function"
    },
    {
      "constant": true,
      "inputs": [],
      "name": "sayHello",
      "outputs": [
        {
          "internalType": "string",
          "name": "",
          "type": "string"
        }
      ],
      "payable": false,
      "stateMutability": "pure",
      "type": "function"
    }
  ],
  "bytecode": "0x608060405234801561001057600080fd5b506103d6806100206000396000f3fe608060405234801561001057600080fd5b50600436106100415760003560e01c8063a878f85814610046578063e1ad7699146100c9578063ef5fb05b14610184575b600080fd5b61004e610207565b6040518080602001828103825283818151815260200191508051906020019080838360005b8381101561008e578082015181840152602081019050610073565b50505050905090810190601f1680156100bb5780820380516001836020036101000a031916815260200191505b509250505060405180910390f35b610182600480360360208110156100df57600080fd5b81019080803590602001906401000000008111156100fc57600080fd5b82018360208201111561010e57600080fd5b8035906020019184600183028401116401000000008311171561013057600080fd5b91908080601f016020809104026020016040519081016040528093929190818152602001838380828437600081840152601f19601f8201169050808301925050505050505091929192905050506102a5565b005b61018c6102bf565b6040518080602001828103825283818151815260200191508051906020019080838360005b838110156101cc5780820151818401526020810190506101b1565b50505050905090810190601f1680156101f95780820380516001836020036101000a031916815260200191505b509250505060405180910390f35b60008054600181600116156101000203166002900480601f01602080910402602001604051908101604052809291908181526020018280546001816001161561010002031660029004801561029d5780601f106102725761010080835404028352916020019161029d565b820191906000526020600020905b81548152906001019060200180831161028057829003601f168201915b505050505081565b80600090805190602001906102bb9291906102fc565b5050565b60606040518060400160405280600c81526020017f48656c6c6f20576f726c64210000000000000000000000000000000000000000815250905090565b828054600181600116156101000203166002900490600052602060002090601f016020900481019282601f1061033d57805160ff191683800117855561036b565b8280016001018555821561036b579182015b8281111561036a57825182559160200191906001019061034f565b5b509050610378919061037c565b5090565b61039e91905b8082111561039a576000816000905550600101610382565b5090565b9056fea265627a7a7231582061581409a44c0b8accf3d6121be407d95249f851301619f0e8c527844eecb3c964736f6c63430005100032",
  "source": "pragma solidity >= 0.5.0;\r\n\r\ncontract DeepThought {\r\n\r\n    string public payload;\r\n\r\n    function setPayload(string memory content) public {\r\n        payload = content;\r\n    }\r\n\r\n    function sayHello() public pure returns (string memory) {\r\n        return 'Hello World!';\r\n    }\r\n}",
  "sourcePath": "C:/Users/Thomas/Desktop/Università/Progetto ricerca blockchain/checknews/RP3project/contracts/DeepThought.sol",
  "compiler": {
    "name": "solc",
    "version": "0.5.16+commit.9c3226ce.Emscripten.clang"
  },
  "schemaVersion": "3.3.4",
  "updatedAt": "2021-04-28T13:33:56.124Z",
  "devdoc": {
    "methods": {}
  },
  "userdoc": {
    "methods": {}
  }
}